:020000040800F2
:10000000080500209D010008171C00087F19000842
:10001000151C00088D0300082D20000800000000BA
:100020000000000000000000000000001B1C000891
:100030008F03000800000000191C00081D1C0008A8
:10004000B7010008B7010008B7010008B7010008B0
:10005000B7010008B7010008B7010008B7010008A0
:10006000B7010008B7010008B7010008B701000890
:10007000B7010008B7010008B7010008B701000880
:10008000B7010008B7010008B7010008B701000870
:10009000B7010008B7010008B7010008B701000860
:1000A000B7010008B7010008B7010008B701000850
:1000B000CD1C0008B7010008B7010008B70100080F
:1000C000B7010008B7010008B7010008B701000830
:1000D000B7010008B701000825200008B701000893
:1000E000B7010008B7010008B7010008B701000810
:1000F000B7010008B7010008B7010008B701000800
:10010000B7010008B7010008B7010008B7010008EF
:10011000B7010008B7010008B7010008B7010008DF
:10012000B7010008B7010008B7010008B7010008CF
:10013000B7010008B7010008B7010008B7010008BF
:10014000B7010008B7010008B7010008B7010008AF
:10015000B7010008B7010008B7010008B70100089F
:10016000B7010008B7010008B7010008B70100088F
:10017000B7010008B7010008B7010008000000003F
:10018000B7010008B7010008DFF80CD000F090F8C4
:100190000048004731200008080500200648804735
:1001A00006480047FEE7FEE7FEE7FEE7FEE7FEE75C
:1001B000FEE7FEE7FEE7FEE7BD1C00088901000838
:1001C0002DE9F05F0546002092469B46884606468C
:1001D000814640241BE0284641464746224600F01F
:1001E00057F853465A46C01A914110D31146184643
:1001F000224600F03EF82D1A67EB01084F462246D2
:100200000120002100F035F817EB00094E41201EB7
:10021000A4F10104DFDC484631462A464346BDE8E6
:10022000F09FD2B201E000F8012B491EFBD27047CB
:100230000022F6E710B513460A4604461946FFF7B2
:10024000F0FF204610BD30B50B46014600202022AD
:10025000012409E021FA02F59D4205D303FA02F5D3
:10026000491B04FA02F52844151EA2F10102F1DC33
:1002700030BD202A04DB203A00FA02F1002070474A
:100280009140C2F1200320FA03F3194390407047D4
:10029000202A04DB203A21FA02F00021704721FADB
:1002A00002F3D040C2F12002914008431946704742
:1002B000064C074D06E0E06840F0010394E80700B3
:1002C00098471034AC42F6D3FFF762FF6824000869
:1002D000882400081448816841F0804181601349F6
:1002E000026812F0020F01D10131F9D1C06C10493E
:1002F0009FED100A9FED101A9FED102AC880C88844
:1003000003EE100AB8EE433A23EE003A23EE011A48
:1003100021EE021A81EE000AB4EEC20AF1EE10FAE2
:10032000C8BFB0EE420A704700200140C0BDF0FFD8
:100330000000002033335340000080390000C842E1
:10034000B0B56B4D104C022195ED020A95ED031AE4
:100350002046B4EEC10AF1EE10FAD4BF0022012209
:1003600000F059FB95ED020A95ED041A2046042190
:10037000B4EEC10AF1EE10FAACBF00220122BDE8D2
:10038000B04000F048BB00BF00080240FEE77047E5
:10039000B0B5564C05464FF470610022204600F07F
:1003A0003AFB534A114611F8083B524833B1114603
:1003B00011F80C3B012B18BF02F1100191ED000A5E
:1003C000B2EE041AB6EE002A032D00EE012ABDEEAD
:1003D000C20A31D810EE101ADFE805F002350A2102
:1003E000B1F57A7F41D34FF47A72B1FBF2F148E074
:1003F000CB080A227C2B88BFB1FBF2F1B1FBF2F2F1
:1004000002EB8202A1EB42013B4A515C026802F41A
:100410007F421143016020464FF4007158E0B1F56E
:100420007A7F18D30A22B1FBF2F202EB8202A1EB2F
:100430004201314A515C0FE0016801F47F4141F013
:10044000FF010160B0BDB1F57A7F1ED36422B1FB1C
:10045000F2F10A221EE0FF21026802F47F421143FA
:10046000016020464FF4807132E0642927D3642272
:10047000B1FBF2F10A22B1FBF2F202EB8202A1EB34
:1004800042011D4A89B2515C1AE0642925D30A222F
:10049000B1FBF2F1B1FBF2F202EB8202A1EB4201FD
:1004A000154A89B2515C01F07F010268C9B202F4B9
:1004B0007F421143016020464FF4806108E0FF2134
:1004C000026802F47F421143016020464FF400614C
:1004D0000122BDE8B04000F09EBA0A2903D30A22E7
:1004E000B1FBF2F1DCE74021DFE700BF0000024092
:1004F00000000020140402405E24000872B6FEE7EB
:10050000F8B50022009290F83C20012A01D1022186
:1005100067E0012280F83C200A6893B20A2A4FEA79
:10052000430313FA82F304D302681E3B02F10C0565
:1005300002E0026802F110052C6807269E4024EABA
:1005400006062E608E6806FA03F32E6833432B608E
:100550004C68754F062C05D804EB840502F1340372
:100560006C1F0CE004EB84050C2C04D802F1300362
:10057000A5F1230403E002F12C03A5F141041E6858
:100580001F25A540AE431E600E881D68A6402E4361
:100590001E60A7F541739A4220D10968122904D13F
:1005A000396841F48001396018E021F00102102A15
:1005B00014D13A68102942F400023A600ED10A4977
:1005C00009680A4AB1FBF2F101EB8101490001E03F
:1005D00000990139009100990029F9D1002180F892
:1005E0003C10C8B201B0F0BD2000002040420F0016
:1005F00010B50446002C42D0206C30B9204600F0E3
:100600009BF80020606484F83C00206C10F0100F10
:1006100037D1206C41F20211884340F0020020647F
:100620004148016821F4403101606168026811436A
:1006300001602068416821F480714160216942684D
:1006400042EA01214160416821F040714160A168A6
:10065000426811434160816821F400618160E16872
:10066000826811438160A16A826822F070628260B0
:1006700082682E4B994206D122F040510CE00120B5
:1006800010BD01204CE011438160816821F0405190
:100690008160E16A826811438160816821F0020112
:1006A0008160217E826842EA4101816094F82020C5
:1006B00041686AB141F400614160416821F46041E0
:1006C0004160616A1A4A02EB41314268114301E01C
:1006D00021F400614160C16A21F47001C162E169E5
:1006E000144A02EB0151C26A1143C162816821F4CC
:1006F0000071816094F83010826842EA4121816083
:10070000816821F4806181606169826842EA8121A7
:100710000122816000206064216C62F30101216488
:10072000002184F83C1010BD042301400100000F9B
:1007300000E0FFFF0000F0FF10B586B0044601A8FE
:100740001421FFF775FD2168124881421FD1002155
:1007500000F560400091104A536943F4807353617F
:10076000536903F480730093009B0091136843F076
:1007700001031360126802F001020092009A012244
:1007800001920322CDE9022101A900F06FF806B021
:1007900010BD00BF002001403038024070B5044653
:1007A000A66D00F03DF9054694F83500022829D1E0
:1007B0002068016821F016010160416921F0800183
:1007C0004161216C09B9A16C19B1016821F00801DE
:1007D0000160016821F00101016005E000F020F9ED
:1007E000401B052812D82068006810F0010FF5D1D1
:1007F000E06D3F2101FA00F0B060012084F835007F
:10080000002008E080206065012004E02020606571
:10081000032084F835000021C0B284F8341070BD84
:1008200090F8351002291FBF8021416501207047D3
:10083000052180F835100068016821F00101016090
:100840000020704770B505466E1C00F0E9F80446BC
:100850001EB193480078054401E04FF0FF3500F0E9
:10086000DFF8001BA842FAD370BD00BF2DE9FC4F92
:100870005B4A08274FF0010E4FF0030A4FF0000BC0
:100880004FF00008904208BF0727564A02444FEA3B
:10089000B223072B38BF4FEAB22700970027102F4B
:1008A00008BFBDE8FC8F0A680EFA07F4224200F088
:1008B00090804B6803F00302551E012D15D8D0F827
:1008C00008C00AFA08F52CEA050CCD6805FA08F507
:1008D00045EA0C058560C3F3001505FA07FC456879
:1008E000A54345EA0C05456001E0032A1DD0C66812
:1008F0000AFA08F5022A26EA05068D6805FA08F5BF
:1009000046EA0506C66010D1374D0BF01C020F23D6
:10091000934005EA57060644356A25EA03030D6944
:1009200005FA02F21A4332624B68056803F00302CB
:100930000AFA08F613F4403F02FA08F225EA06061E
:1009400042EA0602026044D000220192274A13685C
:1009500043F480431360126802F48042019227F04E
:100960000302234B019E234D0BF00C0602EB0309FF
:100970000F2259F805C002FA06FE009A2CEA0E0C66
:1009800002FA06F64FF0010E46EA0C0649F8056039
:100990009A684E68A24316F4801F18BF224316F4CB
:1009A000001F9A60144A156825EA040518BF2543FC
:1009B00016F4003F15605A6822EA040218BF224369
:1009C00016F4803F5A601A6822EA040218BF2243D4
:1009D0001A600BF1040B08F1020801375FE700BF52
:1009E000001C02400000FEBFFCFFFF7F44380240B5
:1009F000003C014008FCFFFF0C3C0140006908403E
:100A000018BF01207047426902EA0103914341EA9D
:100A1000034181617047002A08BF09048161704762
:100A20001F488068704700BF1D48017882681144E4
:100A30008160704780B50B48016841F40071016026
:100A4000016841F480610160016841F480710160D6
:100A5000032000F07DF80F2000F006F800F022F8E7
:100A6000002080BD003C024070B50D4E04464FF49E
:100A70007A713078B1FBF0F092490968B1FBF0F07F
:100A800000F00EFB01250F2C08D838B94FF0FF30CD
:100A900021460022002500F02FF87460284670BD22
:100AA0001400002082B0002001900B494A6842F4F3
:100AB00080424A604A6802F480420192019A0090A2
:100AC000086840F080500860086800F0805000908E
:100AD000009802B0704700BF40380240002808DB91
:100AE00000F01F010122400902FA01F1014A42F817
:100AF0002010704700E100E0B0B5144C1A4D00F032
:100B00000F03B0F1FF3FA3F104032B4403F10C03E7
:100B1000C8BF03192868C0F30220051DC41E80F059
:100B20000700072D4FF0010538BF0024042828BF17
:100B3000042005FA00F00138084005FA04F10F31ED
:100B4000A0401140084300011870B0BD00E400E06F
:100B500005494FF6FF030A681A4060F30A2203486A
:100B600010430860704700BF0CED00E00000FA057C
:100B70002DE9F04104468846002C00F08480444F63
:100B8000D7F8000400F00700404507D287F800843A
:100B9000D7F8000400F00700404574D1206810F039
:100BA000020F11D0410742BFB96841F4E051B9606A
:100BB000010742BFB96841F46041B960B968A268F1
:100BC00021F0F0011143B960C0072BD06068811E8D
:100BD000022904D2396811F0007F0BD153E00128BB
:100BE00004D1396811F4003F04D14CE0396811F0A8
:100BF000020F48D0B96821F003010843B860FFF73D
:100C00000FFF064641F28835B868616800F00C00B5
:100C1000B0EB810F06D0FFF703FF801BA842F3D98A
:100C2000032031E0D7F8000400F00700404507D961
:100C300087F80084D7F8000400F00700404522D16F
:100C4000206810F0040F05D0B968E26821F4E05183
:100C50001143B960000706D5B868216920F46040E7
:100C600040EAC100B86000F033F8B968094AC1F33E
:100C70000311515CC8401349086007480068FFF73A
:100C8000F3FE002000E00120C0B2BDE8F08100BF0B
:100C900000380240462400081800002009480B4A8A
:100CA000006809490968C1F38221515CC840704756
:100CB0000448064A006804490968C1F34231515C9E
:100CC000C840704720000020083802405624000821
:100CD00010B5F04C606800F00C011248082904D0EF
:100CE000042904BF104810BD10BD226820680E49B9
:100CF000002310F4800F02F03F0204BF42F20041D3
:100D0000C0F2F4012068C0F38810A1FB0001FFF7D6
:100D100057FA21680222C1F3014102EB4101B0FB05
:100D2000F1F010BD0024F40040787D012DE9F84F6A
:100D30008246BAF1000F00F064819AF80000D44EA8
:100D4000D44FC0074AD0786800F00C00042807D1BF
:100D5000306810F4003F41D0DAF80400F0BB50E1F5
:100D6000786800F00C00082803D1386810F4800F70
:100D7000EED1DAF80480B8F5803F06D03068B8F5D7
:100D8000A02F13D140F480203060306840F48030D0
:100D90003060FFF745FE0546306810F4003F1DD176
:100DA000FFF73EFE401B6428F6D9C3E020F48030F4
:100DB0003060306820F480203060FFF731FE054657
:100DC000B8F1000FE8D1306810F4003F06D0FFF70B
:100DD00027FE411B03206429F5D913E19AF800008E
:100DE000AD4C800731D5786810F00C0F1CD07868B6
:100DF00000F00C00082804BF386810F4800F13D0EE
:100E0000DAF80C00002800F0978001202060FFF73E
:100E100007FE0546306810F0020F0ED1FFF700FE06
:100E2000401B0228F6D985E0306810F0020F1CBF85
:100E3000DAF80C00012840F0E4803068DAF810108D
:100E400020F0F80040EAC10030609AF80000000786
:100E500022D5DAF8140078B10120C4F8800EFFF72B
:100E6000DFFD0546386F10F0020F15D1FFF7D8FDF2
:100E7000401B0228F6D95DE00020C4F8800EFFF781
:100E8000CFFD0546386F10F0020F05D0FFF7C8FD03
:100E9000401B0228F6D94DE09AF80000A34640070F
:100EA0007CD5F86B4FF0000810F0805F0CD1CDF8C6
:100EB00000804FF00108F86B40F08050F863F86B49
:100EC00000F08050009000987448305810F4807FF3
:100ED00012D17248315841F480713150FFF7A0FDB2
:100EE00005466E48305810F4807F05D1FFF798FD15
:100EF000401B0228F5D91DE0DAF80890B9F1010F7E
:100F000006D0F86EB9F1050F27D140F00400F8665D
:100F1000F86E40F00100F866FFF782FD054641F2E9
:100F20008834F86E10F0020F31D1FFF779FD401BC5
:100F3000A042F6D9032065E000202060FFF770FD95
:100F40000546306810F0020F3FF47FAFFFF768FDF1
:100F5000411B03200229F4D954E020F00100F86677
:100F6000F86E20F00400F866FFF75AFD0546B9F167
:100F7000000FD4D141F28839F86E10F0020F06D07C
:100F8000FFF74EFD411B03204945F5D93AE0B8F182
:100F9000010F02BFF86B20F08050F863DAF81840B8
:100FA000002C72D0786800F00C0008282ED1012C9B
:100FB00027D03868DAF81C1000F480028A4220D169
:100FC000DAF8201000F03F028A421AD1DAF8242021
:100FD00047F6C0710140B1EB821F12D1DAF8281038
:100FE0004FF6FF72C903914300F44032A1F58031FE
:100FF0008A4206D1DAF82C1000F07060B0EB016F75
:1010000043D00120C0B201B0BDE8F08F0020CBF882
:101010006000FFF705FD0546022C0BD15C463068E9
:1010200010F0007F11D0FFF7FBFC411B03200229C9
:10103000F5D9E7E7306810F0007F26D0FFF7F0FC25
:10104000411B03200229F5D9DCE70AF11C052FCD4D
:101050000843D90340EA82104FF6FF72914340EAF9
:101060000560A1F580310843386001202066FFF754
:10107000D7FC0446306810F0007F06D1FFF7D0FCA3
:10108000011B03200229F5D9BCE70020BAE700BF05
:101090000038024004380240000047420038FEFF9A
:1010A000411E0020B0EB116F1CBF01207047044AA5
:1010B000F023516003490B70072190601160704765
:1010C00010E000E023ED00E07047704790F83C30FE
:1010D0000222012B35D010B5012380F83C3080F876
:1010E0003D200268D2F804E0D2F808C00C68B2F1E2
:1010F000804F2EF0700343EA04035360BDE81040B4
:1011000014D04F4B9A421CBF4E4B9A420ED04E4BBE
:101110009A421CBF4D4B9A4208D04D4B9A421CBF7D
:101120004C4B9A4202D04C4B9A4204D149682CF065
:101130008003194391600121002280F83D1080F85E
:101140003C20D0B2704700BF10B5044634B394F8C9
:101150003D0028B9002084F83C00204600F020F82B
:101160000220211D84F83D00206800F0B5FD01201B
:1011700084F8460084F83E0084F83F0084F840007C
:1011800084F8410084F8420084F8430084F8440065
:1011900084F8450084F83D00002010BD012010BDFA
:1011A0000068B0F1804F18BF7047E0B50020002202
:1011B00001900948016841F00101016000210068C7
:1011C00000F00100019001981C20FFF795FC1C2005
:1011D000BDE88C40FFF782BC4038024090F83D10DB
:1011E00001291CBF01207047022180F83D100068D2
:1011F000C168B0F1804F41F00101C16014D01049C5
:1012000088421CBF0F4988420ED00F4988421CBF3C
:101210000E49884208D00E4988421CBF0D498842B9
:1012200002D00D49884204D1816801F007010629E6
:1012300003D0016841F0010101600020704700BF48
:101240000004004000080040000C0040001800406E
:1012500000000140004001400004014010B5044678
:10126000022094F83C20012A70D001224FF67773B7
:1012700084F83C2084F83D00206882689A438260AC
:101280000A6812B3102A20D0202A18BF302A1CD096
:10129000402A21D0502A2BD0602A35D0B2F5005FE9
:1012A0003ED0B2F5805F4AD0702A51D1D1E90123F6
:1012B000C9681A4342EA0121826822F47F4211433D
:1012C0008160816841F0770138E0816821F0770121
:1012D000114341F0070131E04B68CA68194600F03C
:1012E0006DFD2068816821F0770141F0470125E01C
:1012F0004B68CA68194600F061FD2068816821F0DA
:10130000770141F0570119E04B68CA68194600F0AF
:1013100066FD2068816821F0770141F067010DE0EA
:10132000D1E90123C9681A4342EA0121826822F403
:101330007F4211438160816841F4804181600020D7
:10134000012184F83D10002184F83C10C0B210BD8A
:101350000120F5E77047B0B504462068C16802690E
:1013600001EA0205A90714D56FF00201016101210C
:101370002177806910F0030F03D02046FFF7EAFFC2
:1013800005E0204600F074F8204600F072F80020D6
:101390002077680715D520686FF0040101610221EC
:1013A0002177806910F4407F03D02046FFF7D2FFF9
:1013B00005E0204600F05CF8204600F05AF80020D6
:1013C0002077280715D520686FF0080101610421F6
:1013D0002177C06910F0030F03D02046FFF7BAFF52
:1013E00005E0204600F044F8204600F042F80020D6
:1013F0002077E80615D520686FF0100101610821FB
:101400002177C06910F4407F03D02046FFF7A2FF88
:1014100005E0204600F02CF8204600F02AF80020D5
:101420002077E80706D020686FF0010101612046AF
:1014300000F020F8280606D520686FF080010161D1
:101440002046FFF741FE680606D520686FF0400190
:101450000161204600F04AF8A80658BFB0BD2068D8
:101460006FF0200101612046BDE8B040FFF72DBEBE
:1014700070477047B0B51A49884200D0B0BD194CCA
:101480006078FEF785FF6078013000F0030060703F
:10149000154894ED020A94ED041AB4EEC10AF1EE77
:1014A00010FA08DB94ED020A94ED031AB4EEC10AB7
:1014B000F1EE10FA06DD012100220025FFF7ABFA5C
:1014C000A580B0BDA1880131A180A188022938BFC3
:1014D000B0BD0021A1800121BDE8B040FFF793BA63
:1014E0007000002000000020000802407047704794
:1014F00070470000F8B5044620680168C268456975
:1015000001F02F0602F02003202E05D123B1204642
:10151000BDE8F84000F0A1BC5FEA017C08D005F00E
:10152000010E12F4907F8EF0010557D1002D55D099
:101530001140CA06226B3BD5012A39D10021009106
:1015400001680091416800910099416911F0400FD4
:1015500040F0A580A18DE28DE38D002B00F0198174
:10156000891A89B209B914E1206850E8030F22688A
:1015700020F4907042E80303002BF5D1206850E876
:10158000050F226820F0010042E80503002BF5D189
:10159000202084F8420000202063206850E8030FD8
:1015A000226820F0100042E80303002BF5D1D5E0BB
:1015B0000A0640F1BA8094F84110212940F0E980F0
:1015C000A168B1F5805F04BF2169002900F0D380D4
:1015D000216A4A1C226209784160D3E0CE0706D016
:1015E00012F480761EBF666C46F00106666401F058
:1015F0000407012686EA97072F4302BF676C47F06E
:101600000207676401F0020786EA5706354302BF06
:10161000656C45F00405656453EA0E0318BF0123A9
:10162000BCF1000F05D5012B02BF636C43F008032A
:101630006364636C002B00F0AC801140890603D515
:10164000204600F00AFC20684069616C00F0400010
:1016500001F00801084300F08880204600F0D6FB26
:101660002068416911F0400F01D16CE0206850E81A
:10167000050F216820F0400041E80502002AF5D15D
:10168000E06B00285FD048490165FFF7C9F80028E2
:1016900000F07F80E06B016DBDE8F8400847E36B28
:1016A00019684D68A28DA9B2002951D091424FD23C
:1016B000E585D969B1F5807F01D130E0206850E837
:1016C000030F216820F4807041E80302002AF5D15D
:1016D000206850E8050F216820F0010041E805026C
:1016E000002AF5D1206850E8050F216820F040005D
:1016F00041E80502002AF5D1202084F842000020AC
:101700002063206850E8030F216820F0100041E8B2
:101710000302002AF5D1E06BFFF740F8A28D02200A
:101720006063E08D101A81B21AE0490631D5C168B4
:1017300021F04001C160202084F841002046BDE82E
:10174000F84000F01BB92046BDE8F840FFF7D0BED6
:101750008A4204BFD869B0F5807F1AD10220606345
:101760002046BDE8F840FFF7C2BE2046FFF7C0FEA6
:1017700000206064F8BD216A31F8022B6FF35F220C
:1017800042602162E18C4FF6FF7201391142E1841F
:1017900000D0F8BDC16821F08001C160C16841F08E
:1017A0004001C160F8BD00BF031E000810B504462B
:1017B0004CB394F8410028B9002084F8400020463A
:1017C00000F024F8242084F841002068C16821F446
:1017D0000051C160204600F0A5FB2068016921F49A
:1017E00090410161416921F02A014161C16841F4E0
:1017F0000051C16000202021606484F8411084F809
:101800004210606310BD012010BD000010B586B00D
:10181000044601A81421FEF70BFD2168FB48814214
:101820002BD1002100F5DE300091D04A136943F43A
:1018300000331361136903F400330093009B00919C
:10184000136843F001031360126802F00102009272
:10185000009A0C2201920222CDE902210321049177
:101860000721059101A9FFF701F826200021002298
:10187000FFF742F92620FFF731F906B010BD00BF8F
:1018800010B590F84230202B07D1012431B12AB194
:101890000024046300F0ACFB00E00224E0B210BDC1
:1018A0003149884218BF70473048817844292CD08C
:1018B000752917D064293CD055294BD19FED2D0AAD
:1018C00090ED031A31EE000A80ED030A9FED2A0A1B
:1018D00090ED031AB4EEC01AF1EE10FAC4BF264917
:1018E000C16037E09FED230A90ED041A31EE000A43
:1018F00080ED040A90ED040A90ED031AB4EEC10ADB
:10190000F1EE10FA26DDC16823E09FED190A90ED93
:10191000031A31EE000A80ED030A90ED030A90ED00
:10192000041AB4EEC10AF1EE10FABCBF0169C1603D
:1019300010E09FED0F0A90ED041A31EE000A80EDE1
:10194000040A90ED040AB5EEC00AF1EE10FA01DACD
:101950000021016180B5811C03480122FFF790FF3F
:10196000BDE88040704700BFB800002000000020A4
:10197000CDCCCCBDCDCCCC3D0000C8427047FEE7FD
:10198000B0B5244C01212046FFF738F8012810D1CA
:101990001420FEF757FF20460121FFF72FF80128FA
:1019A00007D1012520460121FFF728F80128F9D0A9
:1019B0002EE020460221FFF721F8012810D1142043
:1019C000FEF740FF20460221FFF718F8012807D153
:1019D000022520460221FFF711F80128F9D017E06F
:1019E00020460421FFF70AF8012810D11420FEF741
:1019F00029FF20460421FFF701F8012807D12046DE
:101A00000421FEF7FBFF0128F9D0032500E00025A3
:101A1000E8B2B0BD00100240BFB500241348012554
:101A2000CDE90244CDE90044114901604FF4803111
:101A3000C0E901140461047680F82040C4620D49B5
:101A40008162C460C56180F830404561FEF7D0FD19
:101A500008B1FEF753FD05486946CDE900450295FA
:101A6000FEF74EFD08B1FEF749FDBFBD280000207E
:101A7000002001400100000F2DE9F04F87B0002544
:101A80003C4F00224FF0070ACDE905550195374834
:101A9000016841F010010160016801F0100101913D
:101AA00001990195016841F080010160016801F030
:101AB0008001019101990195016841F004010160E3
:101AC000016801F00401019101990195016841F05B
:101AD00001010160016801F0010101910199019585
:101AE000016841F0020101600721006800F0020076
:101AF000019001981E4C04F500684046B84704F573
:101B00008066FF2101224FF001093046B847204688
:101B10004FF470610022B847CDE902A5DFF858A064
:101B200002AF4FF0020B04F580503946CDF810B0EB
:101B3000D04707203946CDE902094046CDE9045B8C
:101B4000D047FF203946CDE902093046CDE9045B94
:101B5000D0474FF470603946CDE902092046CDE9FF
:101B6000045BD04707B0BDE8F08F00BF30380240BB
:101B700000000240170A00086D080008FEB555482D
:101B800000214FF08042A72340F2E73CCDE9041149
:101B9000CDE90211CDE90011C0E90023C0E9021C22
:101BA000016180218161FFF7CFFA08B1FEF7A6FC41
:101BB0004FF4805002A902904648FFF74FFB08B14E
:101BC000FEF79CFC00206946CDE900004148FFF784
:101BD0007DFA08B1FEF792FC06B080BD80B50A48D8
:101BE0000A490C2201600A4941600021C0E9021142
:101BF0000161C0E90521C161FFF7D8FD18B1BDE859
:101C00008040FEF77BBC80BDB8000020004400404F
:101C100080A90300FEE7FEE770477047FEF704BFA8
:101C200070B592B006AC1421201DFEF701FB01A88F
:101C30001421FEF7FDFA0025022600951D480168D3
:101C400041F080510160006800F0805000900098E1
:101C500000951948016841F480410160006800F472
:101C600080400090009806960120099010200A906C
:101C70000820CDE90C650E90A820CDE90F060420C0
:101C800011902046FFF752F808B172B6FEE70F2018
:101C90000521CDE901064FF4A050039504904FF4BF
:101CA0008050059001A8FEF763FF08B172B6FEE709
:101CB00012B070BD40380240007000400248016818
:101CC00041F470010160704788ED00E00148FFF7C2
:101CD00042BB00BF70000020D0F800C0B0F1804FC0
:101CE0000ED02B4B98421CBF2A4B984208D02A4B4F
:101CF00098421CBF294B984202D0294B984204D1EC
:101D00004B682CF0700243EA020CB0F1804F20D0F7
:101D10001F4B98421CBF1F4B98421AD01E4B984233
:101D20001CBF204B984214D01F4B98421CBF1F4B26
:101D300098420ED01A4B98421CBF184B984208D0BC
:101D40001B4B98421CBF1B4B984202D01A4B984227
:101D500004D1CB682CF4407243EA020C10B58B68B6
:101D60004A69C3620B6883622CF080030B4C1A43F0
:101D700040F48063A342BDE8104004BF09690163D9
:101D8000016841F004010160012141610260704776
:101D90000004004000080040000C00400004014026
:101DA0000000014000180040001C004000200040DE
:101DB000004001400048014000440140D0F820C0EC
:101DC000036A23F001030362836923F0F00343EA0B
:101DD000021282612CF00A02114301627047D0F8AE
:101DE00020C0036A23F010030362836923F4704365
:101DF00043EA023282612CF0A00242EA0111016240
:101E00007047806B0021C185FFF772BB016851E804
:101E1000031F026821F4907142E80313002BF5D1EF
:101E2000016851E8051F026821F0010142E805132D
:101E3000002BF5D1016B012909D1016851E8031F7D
:101E4000026821F0100142E80313002BF5D1202194
:101E500080F8421000210163704790F84210222957
:101E600018BF70478368B3F5805F06D1026900F13F
:101E70002801A2B1D1F800C008E00146002B51F8BA
:101E800028CF01D103690BB17F2300E0FF23026853
:101E900052681A4001238CF800200A6806E00368A3
:101EA000826A5B686FF35F23138002231A440A601F
:101EB0004FF6FF72C18D01391142C18500D07047C4
:101EC0000168CA6822F02002CA60CA6822F48072DF
:101ED000CA604A6922F001024A61202280F8422049
:101EE00000224263036B012B18BFFFF7D9BC0263CA
:101EF00051E8031F026821F0100142E80313016852
:101F0000002BF5D10A6812F0100F08D081B0002222
:101F100000920A68009249680091009901B0818D91
:101F2000FFF7E5BAB0B5044649F20C6520680169CF
:101F3000E26821F4405111430161D4F808C0D4E9AA
:101F40000423D4F81CE0C16842EA0C02A9431A43F6
:101F500042EA0E021143C1604169A26921F4407155
:101F60001143416140F480602049884202D1FEF76C
:101F70009FFE01E0FEF792FEE26963681921A0FB73
:101F80000101B2F5004F16D15A00DB0FFEF718F928
:101F900064216FF06303B0FBF1F202FB0300322314
:101FA00003EBC000B0FBF1F14FF4F87000EA410020
:101FB00001F0070113E09A009B0FFEF701F964217D
:101FC0006FF06303B0FBF1F202FB0300322303EB7B
:101FD0000010B0FBF1F101F0F00001F00F0100EB97
:101FE0000210084321688860B0BD00BF00140140A2
:101FF000816200218285C2854164222180F84210DD
:102000000168006918B1C86840F48070C860486908
:1020100040F001004861C86840F02000C86000201E
:10202000704700008048FFF765BA00BFFEE7000078
:102030002DE9F84F2DED0A8B96B0FEF7FBFCFFF76C
:10204000EFFDFFF719FDFFF7E7FCFFF797FDFFF73F
:10205000C5FD7248016841F001010160002106914F
:1020600042F2107102E0069A01320692069A8A4202
:10207000F9DB016841F0804101606948FFF7AEF883
:10208000684E69480122B11CFFF7FAFB67A000F017
:10209000F9F8DFF8BC919FED78AA9FED78BA9FED33
:1020A00078CAB2EE048AB6EE009A0A250DF1180B32
:1020B0000FF2A0184FF0030AFEF7B2FCD9F8001097
:1020C000401A142844D3FEF7ABFCC9F80000FEF711
:1020D00001F986ED020AB0EE493A96ED020A96ED54
:1020E000031A96ED042AF08801EE083AB0EE491A78
:1020F00002EE081AB0EE492A00EE082ABDEEC30A25
:10210000BDEEC11A10EE101A11EE103ABDEEC22A41
:1021100091FBF5F293FBF5F402EB8207A1EB47018B
:1021200004EB8407A3EB4703CDE90021CDE902438B
:10213000049012EE100A90FBF5F202EB8201A0EB84
:1021400041035846414600F0ABF8584600F09AF873
:10215000FFF716FC03280CD002281FD0012856D107
:1021600030780130B0FBFAF101EB4101401A3070D8
:102170004DE03078012824D196ED030A30EE0A0AAA
:1021800086ED030A96ED030A96ED041AB4EEC10A31
:10219000F1EE10FABCBF3069F06038E03078012809
:1021A00021D196ED030A30EE0B0A86ED030A96ED77
:1021B000030AB4EECC0AF1EE10FAC4BF3048F06066
:1021C00025E03078022822D196ED040A30EE0A0A82
:1021D00086ED040A96ED040AB5EEC00AF1EE10FA97
:1021E00015DA002012E03078022810D196ED040AAA
:1021F00030EE0B0A86ED040A96ED040A96ED031AFA
:10220000B4EEC10AF1EE10FA01DDF0683061FEF7BC
:1022100097F80A20FEF716FB4EE700BF08200140A2
:102220007000002000000020B80000202D2D2D207F
:102230004469676974616C2054656D7020547261E3
:102240006E736D6974746572202D2D2D0D0A00005A
:1022500000010020543D25642E25642020483D25A2
:10226000642E256420204C3D25642E2564202041C9
:1022700044433D25750D0A00CDCCCCBDCDCCCC3D25
:102280000000C84206E0054A136813F0800FFAD038
:102290005160013001780029F5D1704700440040B9
:1022A0000FB4084B10B504A902AA039800F01CF85B
:1022B000044602A9002000F0C1F8204610BC5DF8D9
:1022C00014FB00003D24000802E008C8121F08C1EA
:1022D000002AFAD170477047002001E001C1121FA7
:1022E000002AFBD1704700002DE9FF4F89B09B46C3
:1022F0000446002506E025280BD05A460B99904746
:10230000641C6D1C20780028F5D10DB02846BDE86E
:10231000F08F0027B8460122474900E0074314F830
:10232000013F203B02FA03F00842F7D120782E2823
:1023300019D114F8010F47F004072A280ED06FF0C6
:102340002F022078A0F1300109290CD808EB880170
:1023500002EB410100EB0108641CF2E70A98641CDF
:1023600050F8048B0A9020780028CED0642808D03A
:10237000692806D075281ED05A460B9990476D1CC7
:1023800058E00A994FF00A0901C90A91002802DAB7
:1023900040422D2102E0390504D52B218DF8201073
:1023A000012103E0F90704D02021F7E78A4608AEAF
:1023B0000DE00021FAE70A994FF00A0901C90A91D4
:1023C000F7E74946FDF73FFF303106F8011D0028C9
:1023D000F7D1ADEB060000F12009780701D44FF0EA
:1023E0000108C84502DDA8EB090000E00020804696
:1023F000002706E008A85A46C05D0B9990476D1C5F
:102400007F1C5745F6DB04E030205A460B99904775
:102410006D1CB8F10001A8F10108F5DC05E016F823
:10242000010B5A460B9990476D1CB9F10001A9F1B7
:102430000109F4DC641C65E7092801000A68531CE3
:102440000B601070704700000000000000000102E7
:102450000304060708090000000001020304C0F994
:10246000A4B0999282F88090902400080000002087
:1024700028000000C8220008B82400082800002016
:10248000E0040000D8220008000000000000000066
:1024900000000000000000000000C84100004842A9
:1024A0000000A0410100000010000000000000003A
:0824B0000024F400000000000C
:040000050800018965
:00000001FF
